{
  "address": "0x38Ac2B36d179BDA3062008d86Bd161db79c2a5fF",
  "abi": [
    {
      "inputs": [],
      "stateMutability": "nonpayable",
      "type": "constructor"
    },
    {
      "anonymous": false,
      "inputs": [
        {
          "indexed": true,
          "internalType": "address",
          "name": "player",
          "type": "address"
        },
        {
          "indexed": false,
          "internalType": "uint256",
          "name": "bet",
          "type": "uint256"
        },
        {
          "indexed": false,
          "internalType": "uint256",
          "name": "choice",
          "type": "uint256"
        },
        {
          "indexed": false,
          "internalType": "bytes32",
          "name": "seed",
          "type": "bytes32"
        },
        {
          "indexed": false,
          "internalType": "bool",
          "name": "over",
          "type": "bool"
        }
      ],
      "name": "GameCreated",
      "type": "event"
    },
    {
      "anonymous": false,
      "inputs": [
        {
          "indexed": true,
          "internalType": "address",
          "name": "player",
          "type": "address"
        },
        {
          "indexed": false,
          "internalType": "uint256",
          "name": "round",
          "type": "uint256"
        },
        {
          "indexed": false,
          "internalType": "uint256",
          "name": "multiplier",
          "type": "uint256"
        },
        {
          "indexed": false,
          "internalType": "uint256",
          "name": "bet",
          "type": "uint256"
        },
        {
          "indexed": false,
          "internalType": "uint256",
          "name": "prize",
          "type": "uint256"
        },
        {
          "indexed": false,
          "internalType": "uint256",
          "name": "choice",
          "type": "uint256"
        },
        {
          "indexed": false,
          "internalType": "uint256",
          "name": "result",
          "type": "uint256"
        },
        {
          "indexed": true,
          "internalType": "bytes32",
          "name": "seed",
          "type": "bytes32"
        },
        {
          "indexed": false,
          "internalType": "bool",
          "name": "over",
          "type": "bool"
        },
        {
          "indexed": false,
          "internalType": "enum GamesCore.GameState",
          "name": "state",
          "type": "uint8"
        }
      ],
      "name": "GamePlayed",
      "type": "event"
    },
    {
      "anonymous": false,
      "inputs": [
        {
          "indexed": true,
          "internalType": "address",
          "name": "previousOwner",
          "type": "address"
        },
        {
          "indexed": true,
          "internalType": "address",
          "name": "newOwner",
          "type": "address"
        }
      ],
      "name": "OwnershipTransferred",
      "type": "event"
    },
    {
      "stateMutability": "payable",
      "type": "fallback"
    },
    {
      "inputs": [
        {
          "internalType": "bytes32",
          "name": "_seed",
          "type": "bytes32"
        },
        {
          "internalType": "uint8",
          "name": "_v",
          "type": "uint8"
        },
        {
          "internalType": "bytes32",
          "name": "_r",
          "type": "bytes32"
        },
        {
          "internalType": "bytes32",
          "name": "_s",
          "type": "bytes32"
        }
      ],
      "name": "confirm",
      "outputs": [],
      "stateMutability": "nonpayable",
      "type": "function"
    },
    {
      "inputs": [],
      "name": "croupier",
      "outputs": [
        {
          "internalType": "address",
          "name": "",
          "type": "address"
        }
      ],
      "stateMutability": "view",
      "type": "function"
    },
    {
      "inputs": [],
      "name": "edge",
      "outputs": [
        {
          "internalType": "uint8",
          "name": "",
          "type": "uint8"
        }
      ],
      "stateMutability": "view",
      "type": "function"
    },
    {
      "inputs": [
        {
          "internalType": "bytes32",
          "name": "",
          "type": "bytes32"
        }
      ],
      "name": "games",
      "outputs": [
        {
          "internalType": "uint256",
          "name": "id",
          "type": "uint256"
        },
        {
          "internalType": "address",
          "name": "player",
          "type": "address"
        },
        {
          "internalType": "uint256",
          "name": "bet",
          "type": "uint256"
        },
        {
          "internalType": "uint256",
          "name": "prize",
          "type": "uint256"
        },
        {
          "internalType": "uint256",
          "name": "choice",
          "type": "uint256"
        },
        {
          "internalType": "uint256",
          "name": "result",
          "type": "uint256"
        },
        {
          "internalType": "bool",
          "name": "over",
          "type": "bool"
        },
        {
          "internalType": "enum GamesCore.GameState",
          "name": "state",
          "type": "uint8"
        }
      ],
      "stateMutability": "view",
      "type": "function"
    },
    {
      "inputs": [],
      "name": "houseProfit",
      "outputs": [
        {
          "internalType": "int256",
          "name": "",
          "type": "int256"
        }
      ],
      "stateMutability": "view",
      "type": "function"
    },
    {
      "inputs": [
        {
          "internalType": "uint256",
          "name": "",
          "type": "uint256"
        }
      ],
      "name": "listGames",
      "outputs": [
        {
          "internalType": "bytes32",
          "name": "",
          "type": "bytes32"
        }
      ],
      "stateMutability": "view",
      "type": "function"
    },
    {
      "inputs": [],
      "name": "maxBet",
      "outputs": [
        {
          "internalType": "uint256",
          "name": "",
          "type": "uint256"
        }
      ],
      "stateMutability": "view",
      "type": "function"
    },
    {
      "inputs": [],
      "name": "maxPayout",
      "outputs": [
        {
          "internalType": "uint256",
          "name": "",
          "type": "uint256"
        }
      ],
      "stateMutability": "view",
      "type": "function"
    },
    {
      "inputs": [],
      "name": "minBet",
      "outputs": [
        {
          "internalType": "uint256",
          "name": "",
          "type": "uint256"
        }
      ],
      "stateMutability": "view",
      "type": "function"
    },
    {
      "inputs": [
        {
          "internalType": "bool",
          "name": "_over",
          "type": "bool"
        },
        {
          "internalType": "uint256",
          "name": "_choice",
          "type": "uint256"
        }
      ],
      "name": "multiplier",
      "outputs": [
        {
          "internalType": "int128",
          "name": "",
          "type": "int128"
        }
      ],
      "stateMutability": "view",
      "type": "function"
    },
    {
      "inputs": [],
      "name": "owner",
      "outputs": [
        {
          "internalType": "address",
          "name": "",
          "type": "address"
        }
      ],
      "stateMutability": "view",
      "type": "function"
    },
    {
      "inputs": [],
      "name": "padding",
      "outputs": [
        {
          "internalType": "uint256",
          "name": "",
          "type": "uint256"
        }
      ],
      "stateMutability": "view",
      "type": "function"
    },
    {
      "inputs": [
        {
          "internalType": "bool",
          "name": "_over",
          "type": "bool"
        },
        {
          "internalType": "uint256",
          "name": "_choice",
          "type": "uint256"
        },
        {
          "internalType": "uint256",
          "name": "_bet",
          "type": "uint256"
        }
      ],
      "name": "payout",
      "outputs": [
        {
          "internalType": "uint256",
          "name": "",
          "type": "uint256"
        }
      ],
      "stateMutability": "view",
      "type": "function"
    },
    {
      "inputs": [
        {
          "internalType": "uint256",
          "name": "_choice",
          "type": "uint256"
        },
        {
          "internalType": "uint256",
          "name": "_betAmount",
          "type": "uint256"
        },
        {
          "internalType": "bool",
          "name": "_over",
          "type": "bool"
        },
        {
          "internalType": "bytes32",
          "name": "_seed",
          "type": "bytes32"
        }
      ],
      "name": "play",
      "outputs": [],
      "stateMutability": "nonpayable",
      "type": "function"
    },
    {
      "inputs": [],
      "name": "profitTaker",
      "outputs": [
        {
          "internalType": "address",
          "name": "",
          "type": "address"
        }
      ],
      "stateMutability": "view",
      "type": "function"
    },
    {
      "inputs": [],
      "name": "rangeMax",
      "outputs": [
        {
          "internalType": "uint256",
          "name": "",
          "type": "uint256"
        }
      ],
      "stateMutability": "view",
      "type": "function"
    },
    {
      "inputs": [],
      "name": "rangeMin",
      "outputs": [
        {
          "internalType": "uint256",
          "name": "",
          "type": "uint256"
        }
      ],
      "stateMutability": "view",
      "type": "function"
    },
    {
      "inputs": [],
      "name": "renounceOwnership",
      "outputs": [],
      "stateMutability": "nonpayable",
      "type": "function"
    },
    {
      "inputs": [
        {
          "internalType": "uint256",
          "name": "_min",
          "type": "uint256"
        },
        {
          "internalType": "uint256",
          "name": "_max",
          "type": "uint256"
        }
      ],
      "name": "setBetRange",
      "outputs": [],
      "stateMutability": "nonpayable",
      "type": "function"
    },
    {
      "inputs": [
        {
          "internalType": "uint256",
          "name": "_min",
          "type": "uint256"
        },
        {
          "internalType": "uint256",
          "name": "_max",
          "type": "uint256"
        },
        {
          "internalType": "uint256",
          "name": "_padding",
          "type": "uint256"
        }
      ],
      "name": "setChoiceRange",
      "outputs": [],
      "stateMutability": "nonpayable",
      "type": "function"
    },
    {
      "inputs": [
        {
          "internalType": "address",
          "name": "_addr",
          "type": "address"
        }
      ],
      "name": "setCroupier",
      "outputs": [],
      "stateMutability": "nonpayable",
      "type": "function"
    },
    {
      "inputs": [
        {
          "internalType": "uint8",
          "name": "_e",
          "type": "uint8"
        }
      ],
      "name": "setEdge",
      "outputs": [],
      "stateMutability": "nonpayable",
      "type": "function"
    },
    {
      "inputs": [
        {
          "internalType": "uint256",
          "name": "_maxPayout",
          "type": "uint256"
        }
      ],
      "name": "setMaxPayout",
      "outputs": [],
      "stateMutability": "nonpayable",
      "type": "function"
    },
    {
      "inputs": [
        {
          "internalType": "address",
          "name": "_profitTaker",
          "type": "address"
        }
      ],
      "name": "setProfitTaker",
      "outputs": [],
      "stateMutability": "nonpayable",
      "type": "function"
    },
    {
      "inputs": [
        {
          "internalType": "address",
          "name": "_token",
          "type": "address"
        }
      ],
      "name": "setToken",
      "outputs": [],
      "stateMutability": "nonpayable",
      "type": "function"
    },
    {
      "inputs": [],
      "name": "token",
      "outputs": [
        {
          "internalType": "contract IERC20",
          "name": "",
          "type": "address"
        }
      ],
      "stateMutability": "view",
      "type": "function"
    },
    {
      "inputs": [],
      "name": "totalGamesCount",
      "outputs": [
        {
          "internalType": "uint256",
          "name": "",
          "type": "uint256"
        }
      ],
      "stateMutability": "view",
      "type": "function"
    },
    {
      "inputs": [
        {
          "internalType": "address",
          "name": "newOwner",
          "type": "address"
        }
      ],
      "name": "transferOwnership",
      "outputs": [],
      "stateMutability": "nonpayable",
      "type": "function"
    },
    {
      "inputs": [],
      "name": "withdrawAll",
      "outputs": [],
      "stateMutability": "nonpayable",
      "type": "function"
    },
    {
      "inputs": [],
      "name": "withdrawProfit",
      "outputs": [],
      "stateMutability": "nonpayable",
      "type": "function"
    },
    {
      "stateMutability": "payable",
      "type": "receive"
    }
  ],
  "transactionHash": "0x9b8377540b541eabdcb66fda83cb6b6bc0f3d29ba8c0c9f5b7e28e798c01f4ef",
  "args": [],
  "solcInputHash": "ec852e81497cd11210cc8392e35af545",
  "bytecode": "0x6080604052600780546001600160a01b031916739a946c3cb16c08334b69ae249690c236ebd5583e17905534801561003657600080fd5b50600080546001600160a01b031916339081178255604051909182917f8be0079c531659141344cd1fd0a4f28419497f9722a3daafe3b4186f6b6457e0908290a350600580546001600160a01b031990811633908117909255600680549091169091179055670de0b6b3a764000060025569010f0cf064dd5920000060035569021e19e0c9bab2400000600a556001600b55612710600c5560c8600d556007805460ff60a01b1916600160a01b179055611c51806100f56000396000f3fe6080604052600436106101d15760003560e01c8063853828b6116100f7578063adc2c98a11610095578063f579f88211610064578063f579f88214610502578063f593a38714610584578063f8bb201c1461059a578063fc0c546a146105ba576101d8565b8063adc2c98a14610479578063b00606a5146104ac578063e0176de8146104cc578063f2fde38b146104e2576101d8565b8063959499b6116100d1578063959499b6146104185780639619367d1461042d578063abae505014610443578063abeb11a914610463576101d8565b8063853828b6146103cf57806388fedd04146103e45780638da5cb5b146103fa576101d8565b80635bdbeb1f1161016f578063715018a61161013e578063715018a614610347578063722153731461035c57806372be41121461037c5780637f00e8b71461039c576101d8565b80635bdbeb1f146102af5780635c6c0939146102cf57806365fe09d7146103075780636b5c5f3914610327576101d8565b8063491da6ce116101ab578063491da6ce1461023957806350b89a87146102595780635668972b1461027957806356b4997f1461028f576101d8565b80631374df0b146101da578063144fa6d7146102035780632e5b216814610223576101d8565b366101d857005b005b3480156101e657600080fd5b506101f0600d5481565b6040519081526020015b60405180910390f35b34801561020f57600080fd5b506101d861021e366004611784565b6105da565b34801561022f57600080fd5b506101f060035481565b34801561024557600080fd5b506101d86102543660046118b1565b610642565b34801561026557600080fd5b506101d86102743660046118ef565b610993565b34801561028557600080fd5b506101f0600c5481565b34801561029b57600080fd5b506101d86102aa366004611826565b6109cb565b3480156102bb57600080fd5b506101f06102ca3660046117f2565b6109fa565b3480156102db57600080fd5b506006546102ef906001600160a01b031681565b6040516001600160a01b0390911681526020016101fa565b34801561031357600080fd5b506101f0610322366004611826565b610a19565b34801561033357600080fd5b506005546102ef906001600160a01b031681565b34801561035357600080fd5b506101d8610a3a565b34801561036857600080fd5b506101d8610377366004611784565b610aae565b34801561038857600080fd5b506101d861039736600461191a565b610afa565b3480156103a857600080fd5b506103bc6103b73660046117c7565b610b44565b604051600f9190910b81526020016101fa565b3480156103db57600080fd5b506101d8610bf5565b3480156103f057600080fd5b506101f060045481565b34801561040657600080fd5b506000546001600160a01b03166102ef565b34801561042457600080fd5b506101d8610d76565b34801561043957600080fd5b506101f060025481565b34801561044f57600080fd5b506101d861045e366004611890565b610e18565b34801561046f57600080fd5b506101f0600b5481565b34801561048557600080fd5b5060075461049a90600160a01b900460ff1681565b60405160ff90911681526020016101fa565b3480156104b857600080fd5b506101d86104c736600461183e565b610e4d565b3480156104d857600080fd5b506101f0600a5481565b3480156104ee57600080fd5b506101d86104fd366004611784565b611261565b34801561050e57600080fd5b5061057061051d366004611826565b600860205260009081526040902080546001820154600283015460038401546004850154600586015460069096015494956001600160a01b03909416949293919290919060ff8082169161010090041688565b6040516101fa989796959493929190611a40565b34801561059057600080fd5b506101f060015481565b3480156105a657600080fd5b506101d86105b5366004611784565b61134b565b3480156105c657600080fd5b506007546102ef906001600160a01b031681565b6000546001600160a01b0316331461060d5760405162461bcd60e51b815260040161060490611a0b565b60405180910390fd5b6001600160a01b03811661062057600080fd5b600780546001600160a01b0319166001600160a01b0392909216919091179055565b82806002541115801561065757506003548111155b6106a35760405162461bcd60e51b815260206004820152601760248201527f496e636f727265637420616d6f756e7420746f206265740000000000000000006044820152606401610604565b84600d54600b546106b49190611b1f565b8110156106d35760405162461bcd60e51b8152600401610604906119c7565b600d54600c546106e39190611b1f565b8111156107025760405162461bcd60e51b8152600401610604906119c7565b6000838152600860205260409020548390156107545760405162461bcd60e51b815260206004820152601160248201527014d9595908185b1c9958591e481d5cd959607a1b6044820152606401610604565b60006107618689896109fa565b9050600a548111156107725750600a545b6007546040516370a0823160e01b81523060048201526001600160a01b03909116906370a082319060240160206040518083038186803b1580156107b557600080fd5b505afa1580156107c9573d6000803e3d6000fd5b505050506040513d601f19601f820116820180604052508101906107ed9190611878565b81106108615760405162461bcd60e51b815260206004820152603860248201527f44696365526f6c6c3a20496e737566666963656e742066756e6473206f6e206360448201527f6f6e747261637420746f20636f766572207468652062657400000000000000006064820152608401610604565b600754610879906001600160a01b031633308a611397565b6001805490600061088983611bb9565b90915550506000858152600860205260408120600180548255810180546001600160a01b031916331790556002810189905560068101805461ffff191689151517905560048082018b9055805491928a926108e5908490611ade565b909155505060098054600180820183556000929092527f6e1540171b6c0c960b71a7020d9f60077f6af931a8bbf590da0223dacf75c7af018790558101546002820154600483015460068401546040805193845260208401929092528282018a905260ff1615156060830152516001600160a01b03909216917f5c0023731903eb93130ada523196982a48d902eea3b24cc0b647c08d99007b609181900360800190a2505050505050505050565b6000546001600160a01b031633146109bd5760405162461bcd60e51b815260040161060490611a0b565b600b92909255600c55600d55565b6000546001600160a01b031633146109f55760405162461bcd60e51b815260040161060490611a0b565b600a55565b6000610a0f610a098585610b44565b83611408565b90505b9392505050565b60098181548110610a2957600080fd5b600091825260209091200154905081565b6000546001600160a01b03163314610a645760405162461bcd60e51b815260040161060490611a0b565b600080546040516001600160a01b03909116907f8be0079c531659141344cd1fd0a4f28419497f9722a3daafe3b4186f6b6457e0908390a3600080546001600160a01b0319169055565b6000546001600160a01b03163314610ad85760405162461bcd60e51b815260040161060490611a0b565b600680546001600160a01b0319166001600160a01b0392909216919091179055565b6000546001600160a01b03163314610b245760405162461bcd60e51b815260040161060490611a0b565b6007805460ff909216600160a01b0260ff60a01b19909216919091179055565b60008083610b525782610b6b565b82600c54610b609190611b76565b610b6b906001611b1f565b90506000600b54600c54610b7f9190611b76565b610b8a906001611b1f565b90506000610bba610bab610b9d85611479565b610ba685611479565b61149c565b610bb56064611479565b611503565b600754909150610be990610be390610bde90606490600160a01b900460ff16611539565b611479565b8261149c565b93505050505b92915050565b6000546001600160a01b03163314610c1f5760405162461bcd60e51b815260040161060490611a0b565b60006004541315610ce457610cdf610c3f6000546001600160a01b031690565b600480546007546040516370a0823160e01b8152309381019390935290916001600160a01b03909116906370a082319060240160206040518083038186803b158015610c8a57600080fd5b505afa158015610c9e573d6000803e3d6000fd5b505050506040513d601f19601f82011682018060405250810190610cc29190611878565b610ccc9190611b76565b6007546001600160a01b03169190611545565b610d74565b610d74610cf96000546001600160a01b031690565b6007546040516370a0823160e01b81523060048201526001600160a01b03909116906370a082319060240160206040518083038186803b158015610d3c57600080fd5b505afa158015610d50573d6000803e3d6000fd5b505050506040513d601f19601f82011682018060405250810190610ccc9190611878565b565b6006546001600160a01b03163314610de55760405162461bcd60e51b815260206004820152602c60248201527f4f6e6c79207468652070726f6669742074616b65722063616e2072756e20746860448201526b34b990333ab731ba34b7b71760a11b6064820152608401610604565b60006004541315610d7457600654600454600754610e11926001600160a01b0391821692911690611545565b6000600455565b6000546001600160a01b03163314610e425760405162461bcd60e51b815260040161060490611a0b565b600291909155600355565b6005546001600160a01b03163314610eb85760405162461bcd60e51b815260206004820152602860248201527f4f6e6c79207468652063726f75706965722063616e2072756e207468697320666044820152673ab731ba34b7b71760c11b6064820152608401610604565b60008481526008602052604090208054610f145760405162461bcd60e51b815260206004820152601c60248201527f44696365526f6c6c3a2047616d6520646f65736e2774206578697374000000006044820152606401610604565b60006006820154610100900460ff166002811115610f4257634e487b7160e01b600052602160045260246000fd5b14610f8f5760405162461bcd60e51b815260206004820152601d60248201527f44696365526f6c6c3a2047616d6520616c726561647920706c617965640000006044820152606401610604565b60006040518060400160405280601c81526020017f19457468657265756d205369676e6564204d6573736167653a0a333200000000815250905060008187604051602001610fde929190611972565b60408051808303601f1901815282825280516020918201206005546000855291840180845281905260ff8a169284019290925260608301889052608083018790529092506001600160a01b03169060019060a0016020604051602081039080840390855afa158015611054573d6000803e3d6000fd5b505050602060405103516001600160a01b0316146110b45760405162461bcd60e51b815260206004820152601b60248201527f44696365526f6c6c3a20496e76616c6964207369676e617475726500000000006044820152606401610604565b600c546110c19085611bd4565b6110cc906001611b1f565b6005840155600683015460048401546000916110ed9160ff90911690610b44565b600685015490915060ff1615801561110d57508360050154846004015410155b8061112f5750600684015460ff16801561112f57508360050154846004015411155b156111c0576006840154600485015460028601546111519260ff1691906109fa565b60038501819055600a54101561116a57600a5460038501555b6001840154600385015460075461118f926001600160a01b0391821692911690611545565b8360030154600460008282546111a59190611b37565b909155505060068401805461ff0019166101001790556111d9565b6000600385015560068401805461ff0019166102001790555b6001840154845489916001600160a01b0316907e867f710c53fead2d43f716b65ca12f0ecbef01e58edb8cd235073f91492431906112168561157a565b600289015460038a015460048b015460058c015460068d015460405161124f9796959493929160ff808216926101009092041690611a95565b60405180910390a35050505050505050565b6000546001600160a01b0316331461128b5760405162461bcd60e51b815260040161060490611a0b565b6001600160a01b0381166112f05760405162461bcd60e51b815260206004820152602660248201527f4f776e61626c653a206e6577206f776e657220697320746865207a65726f206160448201526564647265737360d01b6064820152608401610604565b600080546040516001600160a01b03808516939216917f8be0079c531659141344cd1fd0a4f28419497f9722a3daafe3b4186f6b6457e091a3600080546001600160a01b0319166001600160a01b0392909216919091179055565b6000546001600160a01b031633146113755760405162461bcd60e51b815260040161060490611a0b565b600580546001600160a01b0319166001600160a01b0392909216919091179055565b6040516001600160a01b03808516602483015283166044820152606481018290526114029085906323b872dd60e01b906084015b60408051601f198184030181529190526020810180516001600160e01b03166001600160e01b031990931692909217909152611596565b50505050565b60008161141757506000610bef565b600083600f0b121561142857600080fd5b600f83900b6fffffffffffffffffffffffffffffffff8316810260401c90608084901c026001600160c01b0381111561146057600080fd5b60401b811981111561147157600080fd5b019392505050565b6000677fffffffffffffff82111561149057600080fd5b50604081901b5b919050565b600081600f0b600014156114af57600080fd5b600082600f0b604085600f0b901b816114d857634e487b7160e01b600052601260045260246000fd5b05905060016001607f1b031981128015906114fa575060016001607f1b038113155b610a1257600080fd5b6000600f83810b9083900b0260401d60016001607f1b031981128015906114fa575060016001607f1b03811315610a1257600080fd5b6000610a128284611b76565b6040516001600160a01b03831660248201526044810182905261157590849063a9059cbb60e01b906064016113cb565b505050565b60008082600f0b121561158c57600080fd5b50600f0b60401d90565b60006115eb826040518060400160405280602081526020017f5361666545524332303a206c6f772d6c6576656c2063616c6c206661696c6564815250856001600160a01b03166116689092919063ffffffff16565b805190915015611575578080602001905181019061160991906117ab565b6115755760405162461bcd60e51b815260206004820152602a60248201527f5361666545524332303a204552433230206f7065726174696f6e20646964206e6044820152691bdd081cdd58d8d9595960b21b6064820152608401610604565b6060610a0f848460008585843b6116c15760405162461bcd60e51b815260206004820152601d60248201527f416464726573733a2063616c6c20746f206e6f6e2d636f6e74726163740000006044820152606401610604565b600080866001600160a01b031685876040516116dd9190611956565b60006040518083038185875af1925050503d806000811461171a576040519150601f19603f3d011682016040523d82523d6000602084013e61171f565b606091505b509150915061172f82828661173a565b979650505050505050565b60608315611749575081610a12565b8251156117595782518084602001fd5b8160405162461bcd60e51b81526004016106049190611994565b803560ff8116811461149757600080fd5b600060208284031215611795578081fd5b81356001600160a01b0381168114610a12578182fd5b6000602082840312156117bc578081fd5b8151610a1281611c0a565b600080604083850312156117d9578081fd5b82356117e481611c0a565b946020939093013593505050565b600080600060608486031215611806578081fd5b833561181181611c0a565b95602085013595506040909401359392505050565b600060208284031215611837578081fd5b5035919050565b60008060008060808587031215611853578081fd5b8435935061186360208601611773565b93969395505050506040820135916060013590565b600060208284031215611889578081fd5b5051919050565b600080604083850312156118a2578182fd5b50508035926020909101359150565b600080600080608085870312156118c6578384fd5b843593506020850135925060408501356118df81611c0a565b9396929550929360600135925050565b600080600060608486031215611903578283fd5b505081359360208301359350604090920135919050565b60006020828403121561192b578081fd5b610a1282611773565b6003811061195257634e487b7160e01b600052602160045260246000fd5b9052565b60008251611968818460208701611b8d565b9190910192915050565b60008351611984818460208801611b8d565b9190910191825250602001919050565b60006020825282518060208401526119b3816040850160208701611b8d565b601f01601f19169190910160400192915050565b60208082526024908201527f44696365526f6c6c3a20496e636f72726563742076616c756520666f722063686040820152636f69636560e01b606082015260800190565b6020808252818101527f4f776e61626c653a2063616c6c6572206973206e6f7420746865206f776e6572604082015260600190565b8881526001600160a01b038816602082015260408101879052606081018690526080810185905260a0810184905282151560c08201526101008101611a8860e0830184611934565b9998505050505050505050565b60006101008201905089825267ffffffffffffffff891660208301528760408301528660608301528560808301528460a083015283151560c0830152611a8860e0830184611934565b600080821280156001600160ff1b0384900385131615611b0057611b00611bf4565b600160ff1b8390038412811615611b1957611b19611bf4565b50500190565b60008219821115611b3257611b32611bf4565b500190565b60008083128015600160ff1b850184121615611b5557611b55611bf4565b6001600160ff1b0384018313811615611b7057611b70611bf4565b50500390565b600082821015611b8857611b88611bf4565b500390565b60005b83811015611ba8578181015183820152602001611b90565b838111156114025750506000910152565b6000600019821415611bcd57611bcd611bf4565b5060010190565b600082611bef57634e487b7160e01b81526012600452602481fd5b500690565b634e487b7160e01b600052601160045260246000fd5b8015158114611c1857600080fd5b5056fea2646970667358221220295a76aa7ec95b610a9dd34be6970d82c4f5f8e85fd24e97b27d38fbdac9a77764736f6c63430008030033",
  "devdoc": {
    "kind": "dev",
    "methods": {
      "confirm(bytes32,uint8,bytes32,bytes32)": {
        "params": {
          "_seed": ": Uniqual value for each game"
        }
      },
      "owner()": {
        "details": "Returns the address of the current owner."
      },
      "payout(bool,uint256,uint256)": {
        "params": {
          "_bet": ": Bet amount"
        }
      },
      "play(uint256,uint256,bool,bytes32)": {
        "params": {
          "_choice": ": Choice",
          "_over": ": More or less than choice",
          "_seed": ": Uniqual value for each game"
        }
      },
      "renounceOwnership()": {
        "details": "Leaves the contract without owner. It will not be possible to call `onlyOwner` functions anymore. Can only be called by the current owner. NOTE: Renouncing ownership will leave the contract without an owner, thereby removing any functionality that is only available to the owner."
      },
      "setBetRange(uint256,uint256)": {
        "params": {
          "_max": ": New maxBet",
          "_min": ": New minBet"
        }
      },
      "setChoiceRange(uint256,uint256,uint256)": {
        "params": {
          "_max": ": New rangeMax",
          "_min": ": New rangeMin",
          "_padding": ": New padding"
        }
      },
      "setCroupier(address)": {
        "params": {
          "_addr": ": New croupier"
        }
      },
      "setEdge(uint8)": {
        "params": {
          "_e": ": New edge"
        }
      },
      "setMaxPayout(uint256)": {
        "params": {
          "_maxPayout": ": New maxPayout"
        }
      },
      "setProfitTaker(address)": {
        "params": {
          "_profitTaker": ": New profitTaker"
        }
      },
      "transferOwnership(address)": {
        "details": "Transfers ownership of the contract to a new account (`newOwner`). Can only be called by the current owner."
      }
    },
    "version": 1
  },
  "userdoc": {
    "kind": "user",
    "methods": {
      "confirm(bytes32,uint8,bytes32,bytes32)": {
        "notice": "Confirm the game, with seed"
      },
      "croupier()": {
        "notice": "Croupier"
      },
      "edge()": {
        "notice": "Fee factor"
      },
      "games(bytes32)": {
        "notice": "Info of each game"
      },
      "houseProfit()": {
        "notice": "Profit from bets"
      },
      "listGames(uint256)": {
        "notice": "Games seeds"
      },
      "maxBet()": {
        "notice": "Maximal amount for bet"
      },
      "maxPayout()": {
        "notice": "Maximum possible win"
      },
      "minBet()": {
        "notice": "Minimal amount for bet"
      },
      "multiplier(bool,uint256)": {
        "notice": "Calculates the coefficient for choice"
      },
      "payout(bool,uint256,uint256)": {
        "notice": "Calculates the prize when winning"
      },
      "play(uint256,uint256,bool,bytes32)": {
        "notice": "Add new game"
      },
      "profitTaker()": {
        "notice": "Person how will receive houseProfit"
      },
      "rangeMax()": {
        "notice": "Maximal possible choice"
      },
      "rangeMin()": {
        "notice": "Minimal possible choice"
      },
      "setBetRange(uint256,uint256)": {
        "notice": "Set new minBet and maxBet"
      },
      "setChoiceRange(uint256,uint256,uint256)": {
        "notice": "Set new range for choice"
      },
      "setCroupier(address)": {
        "notice": "Set new croupier"
      },
      "setEdge(uint8)": {
        "notice": "Set new edge"
      },
      "setMaxPayout(uint256)": {
        "notice": "Set new maxPayout    "
      },
      "setProfitTaker(address)": {
        "notice": "Set new profitTaker"
      },
      "totalGamesCount()": {
        "notice": "Number of all games"
      },
      "withdrawAll()": {
        "notice": "sends contract's excessive balance to owner"
      },
      "withdrawProfit()": {
        "notice": "sends houseProfit to profitTaker"
      }
    },
    "version": 1
  },
  "storageLayout": {
    "storage": [
      {
        "astId": 7,
        "contract": "cache/solpp-generated-contracts/DiceRoll.sol:DiceRoll",
        "label": "_owner",
        "offset": 0,
        "slot": "0",
        "type": "t_address"
      },
      {
        "astId": 4782,
        "contract": "cache/solpp-generated-contracts/DiceRoll.sol:DiceRoll",
        "label": "totalGamesCount",
        "offset": 0,
        "slot": "1",
        "type": "t_uint256"
      },
      {
        "astId": 4785,
        "contract": "cache/solpp-generated-contracts/DiceRoll.sol:DiceRoll",
        "label": "minBet",
        "offset": 0,
        "slot": "2",
        "type": "t_uint256"
      },
      {
        "astId": 4788,
        "contract": "cache/solpp-generated-contracts/DiceRoll.sol:DiceRoll",
        "label": "maxBet",
        "offset": 0,
        "slot": "3",
        "type": "t_uint256"
      },
      {
        "astId": 4791,
        "contract": "cache/solpp-generated-contracts/DiceRoll.sol:DiceRoll",
        "label": "houseProfit",
        "offset": 0,
        "slot": "4",
        "type": "t_int256"
      },
      {
        "astId": 4794,
        "contract": "cache/solpp-generated-contracts/DiceRoll.sol:DiceRoll",
        "label": "croupier",
        "offset": 0,
        "slot": "5",
        "type": "t_address"
      },
      {
        "astId": 4797,
        "contract": "cache/solpp-generated-contracts/DiceRoll.sol:DiceRoll",
        "label": "profitTaker",
        "offset": 0,
        "slot": "6",
        "type": "t_address"
      },
      {
        "astId": 4803,
        "contract": "cache/solpp-generated-contracts/DiceRoll.sol:DiceRoll",
        "label": "token",
        "offset": 0,
        "slot": "7",
        "type": "t_contract(IERC20)187"
      },
      {
        "astId": 4806,
        "contract": "cache/solpp-generated-contracts/DiceRoll.sol:DiceRoll",
        "label": "edge",
        "offset": 20,
        "slot": "7",
        "type": "t_uint8"
      },
      {
        "astId": 4812,
        "contract": "cache/solpp-generated-contracts/DiceRoll.sol:DiceRoll",
        "label": "games",
        "offset": 0,
        "slot": "8",
        "type": "t_mapping(t_bytes32,t_struct(Game)4775_storage)"
      },
      {
        "astId": 4816,
        "contract": "cache/solpp-generated-contracts/DiceRoll.sol:DiceRoll",
        "label": "listGames",
        "offset": 0,
        "slot": "9",
        "type": "t_array(t_bytes32)dyn_storage"
      },
      {
        "astId": 4201,
        "contract": "cache/solpp-generated-contracts/DiceRoll.sol:DiceRoll",
        "label": "maxPayout",
        "offset": 0,
        "slot": "10",
        "type": "t_uint256"
      },
      {
        "astId": 4204,
        "contract": "cache/solpp-generated-contracts/DiceRoll.sol:DiceRoll",
        "label": "rangeMin",
        "offset": 0,
        "slot": "11",
        "type": "t_uint256"
      },
      {
        "astId": 4207,
        "contract": "cache/solpp-generated-contracts/DiceRoll.sol:DiceRoll",
        "label": "rangeMax",
        "offset": 0,
        "slot": "12",
        "type": "t_uint256"
      },
      {
        "astId": 4209,
        "contract": "cache/solpp-generated-contracts/DiceRoll.sol:DiceRoll",
        "label": "padding",
        "offset": 0,
        "slot": "13",
        "type": "t_uint256"
      }
    ],
    "types": {
      "t_address": {
        "encoding": "inplace",
        "label": "address",
        "numberOfBytes": "20"
      },
      "t_array(t_bytes32)dyn_storage": {
        "base": "t_bytes32",
        "encoding": "dynamic_array",
        "label": "bytes32[]",
        "numberOfBytes": "32"
      },
      "t_bool": {
        "encoding": "inplace",
        "label": "bool",
        "numberOfBytes": "1"
      },
      "t_bytes32": {
        "encoding": "inplace",
        "label": "bytes32",
        "numberOfBytes": "32"
      },
      "t_contract(IERC20)187": {
        "encoding": "inplace",
        "label": "contract IERC20",
        "numberOfBytes": "20"
      },
      "t_enum(GameState)4779": {
        "encoding": "inplace",
        "label": "enum GamesCore.GameState",
        "numberOfBytes": "1"
      },
      "t_int256": {
        "encoding": "inplace",
        "label": "int256",
        "numberOfBytes": "32"
      },
      "t_mapping(t_bytes32,t_struct(Game)4775_storage)": {
        "encoding": "mapping",
        "key": "t_bytes32",
        "label": "mapping(bytes32 => struct GamesCore.Game)",
        "numberOfBytes": "32",
        "value": "t_struct(Game)4775_storage"
      },
      "t_struct(Game)4775_storage": {
        "encoding": "inplace",
        "label": "struct GamesCore.Game",
        "members": [
          {
            "astId": 4759,
            "contract": "cache/solpp-generated-contracts/DiceRoll.sol:DiceRoll",
            "label": "id",
            "offset": 0,
            "slot": "0",
            "type": "t_uint256"
          },
          {
            "astId": 4761,
            "contract": "cache/solpp-generated-contracts/DiceRoll.sol:DiceRoll",
            "label": "player",
            "offset": 0,
            "slot": "1",
            "type": "t_address"
          },
          {
            "astId": 4763,
            "contract": "cache/solpp-generated-contracts/DiceRoll.sol:DiceRoll",
            "label": "bet",
            "offset": 0,
            "slot": "2",
            "type": "t_uint256"
          },
          {
            "astId": 4765,
            "contract": "cache/solpp-generated-contracts/DiceRoll.sol:DiceRoll",
            "label": "prize",
            "offset": 0,
            "slot": "3",
            "type": "t_uint256"
          },
          {
            "astId": 4767,
            "contract": "cache/solpp-generated-contracts/DiceRoll.sol:DiceRoll",
            "label": "choice",
            "offset": 0,
            "slot": "4",
            "type": "t_uint256"
          },
          {
            "astId": 4769,
            "contract": "cache/solpp-generated-contracts/DiceRoll.sol:DiceRoll",
            "label": "result",
            "offset": 0,
            "slot": "5",
            "type": "t_uint256"
          },
          {
            "astId": 4771,
            "contract": "cache/solpp-generated-contracts/DiceRoll.sol:DiceRoll",
            "label": "over",
            "offset": 0,
            "slot": "6",
            "type": "t_bool"
          },
          {
            "astId": 4774,
            "contract": "cache/solpp-generated-contracts/DiceRoll.sol:DiceRoll",
            "label": "state",
            "offset": 1,
            "slot": "6",
            "type": "t_enum(GameState)4779"
          }
        ],
        "numberOfBytes": "224"
      },
      "t_uint256": {
        "encoding": "inplace",
        "label": "uint256",
        "numberOfBytes": "32"
      },
      "t_uint8": {
        "encoding": "inplace",
        "label": "uint8",
        "numberOfBytes": "1"
      }
    }
  }
}