{
  "address": "0x41bAAc329CC4FFA4D50cab1054d5511b9644CeA7",
  "abi": [
    {
      "inputs": [],
      "payable": false,
      "stateMutability": "nonpayable",
      "type": "constructor"
    },
    {
      "anonymous": false,
      "inputs": [
        {
          "indexed": true,
          "internalType": "address",
          "name": "user",
          "type": "address"
        },
        {
          "indexed": false,
          "internalType": "uint256",
          "name": "bnbEarnings",
          "type": "uint256"
        },
        {
          "indexed": false,
          "internalType": "uint256",
          "name": "xblzdEarnings",
          "type": "uint256"
        }
      ],
      "name": "EarningsPaid",
      "type": "event"
    },
    {
      "anonymous": false,
      "inputs": [
        {
          "indexed": true,
          "internalType": "address",
          "name": "user",
          "type": "address"
        },
        {
          "indexed": false,
          "internalType": "uint256",
          "name": "amount",
          "type": "uint256"
        }
      ],
      "name": "LoomdartBNBBet",
      "type": "event"
    },
    {
      "anonymous": false,
      "inputs": [
        {
          "indexed": true,
          "internalType": "address",
          "name": "user",
          "type": "address"
        },
        {
          "indexed": false,
          "internalType": "uint256",
          "name": "amount",
          "type": "uint256"
        }
      ],
      "name": "LoomdartXBLZDBet",
      "type": "event"
    },
    {
      "anonymous": false,
      "inputs": [
        {
          "indexed": true,
          "internalType": "address",
          "name": "previousOwner",
          "type": "address"
        },
        {
          "indexed": true,
          "internalType": "address",
          "name": "newOwner",
          "type": "address"
        }
      ],
      "name": "OwnershipTransferred",
      "type": "event"
    },
    {
      "anonymous": false,
      "inputs": [
        {
          "indexed": true,
          "internalType": "address",
          "name": "user",
          "type": "address"
        },
        {
          "indexed": false,
          "internalType": "uint256",
          "name": "amount",
          "type": "uint256"
        }
      ],
      "name": "RookieBNBBet",
      "type": "event"
    },
    {
      "anonymous": false,
      "inputs": [
        {
          "indexed": true,
          "internalType": "address",
          "name": "user",
          "type": "address"
        },
        {
          "indexed": false,
          "internalType": "uint256",
          "name": "amount",
          "type": "uint256"
        }
      ],
      "name": "RookieXBLZDBet",
      "type": "event"
    },
    {
      "constant": false,
      "inputs": [
        {
          "internalType": "enum FightBetting.Fighter",
          "name": "fighter",
          "type": "uint8"
        }
      ],
      "name": "BNBBet",
      "outputs": [],
      "payable": true,
      "stateMutability": "payable",
      "type": "function"
    },
    {
      "constant": false,
      "inputs": [
        {
          "internalType": "enum FightBetting.Fighter",
          "name": "fighter",
          "type": "uint8"
        },
        {
          "internalType": "uint256",
          "name": "amount",
          "type": "uint256"
        }
      ],
      "name": "XBLZDBet",
      "outputs": [],
      "payable": false,
      "stateMutability": "nonpayable",
      "type": "function"
    },
    {
      "constant": false,
      "inputs": [],
      "name": "cancelFight",
      "outputs": [],
      "payable": false,
      "stateMutability": "nonpayable",
      "type": "function"
    },
    {
      "constant": true,
      "inputs": [],
      "name": "desc",
      "outputs": [
        {
          "internalType": "string",
          "name": "",
          "type": "string"
        }
      ],
      "payable": false,
      "stateMutability": "view",
      "type": "function"
    },
    {
      "constant": true,
      "inputs": [
        {
          "internalType": "address",
          "name": "account",
          "type": "address"
        }
      ],
      "name": "earned",
      "outputs": [
        {
          "internalType": "uint256",
          "name": "bnbEarnings",
          "type": "uint256"
        },
        {
          "internalType": "uint256",
          "name": "xblzdEarnings",
          "type": "uint256"
        }
      ],
      "payable": false,
      "stateMutability": "view",
      "type": "function"
    },
    {
      "constant": true,
      "inputs": [],
      "name": "endTime",
      "outputs": [
        {
          "internalType": "uint256",
          "name": "",
          "type": "uint256"
        }
      ],
      "payable": false,
      "stateMutability": "view",
      "type": "function"
    },
    {
      "constant": false,
      "inputs": [
        {
          "internalType": "enum FightBetting.Fighter",
          "name": "fighter",
          "type": "uint8"
        }
      ],
      "name": "finalizeFight",
      "outputs": [],
      "payable": false,
      "stateMutability": "nonpayable",
      "type": "function"
    },
    {
      "constant": false,
      "inputs": [],
      "name": "getFees",
      "outputs": [
        {
          "internalType": "uint256",
          "name": "bnbFees",
          "type": "uint256"
        },
        {
          "internalType": "uint256",
          "name": "xblzdFees",
          "type": "uint256"
        }
      ],
      "payable": false,
      "stateMutability": "nonpayable",
      "type": "function"
    },
    {
      "constant": false,
      "inputs": [],
      "name": "getRewards",
      "outputs": [],
      "payable": false,
      "stateMutability": "nonpayable",
      "type": "function"
    },
    {
      "constant": true,
      "inputs": [],
      "name": "isCanceled",
      "outputs": [
        {
          "internalType": "bool",
          "name": "",
          "type": "bool"
        }
      ],
      "payable": false,
      "stateMutability": "view",
      "type": "function"
    },
    {
      "constant": true,
      "inputs": [],
      "name": "isFeesClaimed",
      "outputs": [
        {
          "internalType": "bool",
          "name": "",
          "type": "bool"
        }
      ],
      "payable": false,
      "stateMutability": "view",
      "type": "function"
    },
    {
      "constant": true,
      "inputs": [],
      "name": "isFinal",
      "outputs": [
        {
          "internalType": "bool",
          "name": "",
          "type": "bool"
        }
      ],
      "payable": false,
      "stateMutability": "view",
      "type": "function"
    },
    {
      "constant": true,
      "inputs": [],
      "name": "isOwner",
      "outputs": [
        {
          "internalType": "bool",
          "name": "",
          "type": "bool"
        }
      ],
      "payable": false,
      "stateMutability": "view",
      "type": "function"
    },
    {
      "constant": true,
      "inputs": [],
      "name": "isPaused",
      "outputs": [
        {
          "internalType": "bool",
          "name": "",
          "type": "bool"
        }
      ],
      "payable": false,
      "stateMutability": "view",
      "type": "function"
    },
    {
      "constant": true,
      "inputs": [],
      "name": "lastClaimTime",
      "outputs": [
        {
          "internalType": "uint256",
          "name": "",
          "type": "uint256"
        }
      ],
      "payable": false,
      "stateMutability": "view",
      "type": "function"
    },
    {
      "constant": true,
      "inputs": [
        {
          "internalType": "address",
          "name": "",
          "type": "address"
        }
      ],
      "name": "loomdartBNBBet",
      "outputs": [
        {
          "internalType": "uint256",
          "name": "",
          "type": "uint256"
        }
      ],
      "payable": false,
      "stateMutability": "view",
      "type": "function"
    },
    {
      "constant": true,
      "inputs": [],
      "name": "loomdartBNBPot",
      "outputs": [
        {
          "internalType": "uint256",
          "name": "",
          "type": "uint256"
        }
      ],
      "payable": false,
      "stateMutability": "view",
      "type": "function"
    },
    {
      "constant": true,
      "inputs": [
        {
          "internalType": "address",
          "name": "",
          "type": "address"
        }
      ],
      "name": "loomdartXBLZDBet",
      "outputs": [
        {
          "internalType": "uint256",
          "name": "",
          "type": "uint256"
        }
      ],
      "payable": false,
      "stateMutability": "view",
      "type": "function"
    },
    {
      "constant": true,
      "inputs": [],
      "name": "loomdartXBLZDPot",
      "outputs": [
        {
          "internalType": "uint256",
          "name": "",
          "type": "uint256"
        }
      ],
      "payable": false,
      "stateMutability": "view",
      "type": "function"
    },
    {
      "constant": false,
      "inputs": [
        {
          "internalType": "uint256",
          "name": "reward",
          "type": "uint256"
        },
        {
          "internalType": "uint256",
          "name": "_duration",
          "type": "uint256"
        }
      ],
      "name": "notifyRewardAmount",
      "outputs": [],
      "payable": false,
      "stateMutability": "nonpayable",
      "type": "function"
    },
    {
      "constant": true,
      "inputs": [],
      "name": "owner",
      "outputs": [
        {
          "internalType": "address",
          "name": "",
          "type": "address"
        }
      ],
      "payable": false,
      "stateMutability": "view",
      "type": "function"
    },
    {
      "constant": false,
      "inputs": [],
      "name": "pauseBetting",
      "outputs": [],
      "payable": false,
      "stateMutability": "nonpayable",
      "type": "function"
    },
    {
      "constant": false,
      "inputs": [],
      "name": "renounceOwnership",
      "outputs": [],
      "payable": false,
      "stateMutability": "nonpayable",
      "type": "function"
    },
    {
      "constant": false,
      "inputs": [
        {
          "internalType": "address",
          "name": "token",
          "type": "address"
        }
      ],
      "name": "rescueFunds",
      "outputs": [],
      "payable": false,
      "stateMutability": "nonpayable",
      "type": "function"
    },
    {
      "constant": true,
      "inputs": [],
      "name": "rewardDistribution",
      "outputs": [
        {
          "internalType": "address",
          "name": "",
          "type": "address"
        }
      ],
      "payable": false,
      "stateMutability": "view",
      "type": "function"
    },
    {
      "constant": true,
      "inputs": [
        {
          "internalType": "address",
          "name": "",
          "type": "address"
        }
      ],
      "name": "rookieBNBBet",
      "outputs": [
        {
          "internalType": "uint256",
          "name": "",
          "type": "uint256"
        }
      ],
      "payable": false,
      "stateMutability": "view",
      "type": "function"
    },
    {
      "constant": true,
      "inputs": [],
      "name": "rookieBNBPot",
      "outputs": [
        {
          "internalType": "uint256",
          "name": "",
          "type": "uint256"
        }
      ],
      "payable": false,
      "stateMutability": "view",
      "type": "function"
    },
    {
      "constant": true,
      "inputs": [
        {
          "internalType": "address",
          "name": "",
          "type": "address"
        }
      ],
      "name": "rookieXBLZDBet",
      "outputs": [
        {
          "internalType": "uint256",
          "name": "",
          "type": "uint256"
        }
      ],
      "payable": false,
      "stateMutability": "view",
      "type": "function"
    },
    {
      "constant": true,
      "inputs": [],
      "name": "rookieXBLZDPot",
      "outputs": [
        {
          "internalType": "uint256",
          "name": "",
          "type": "uint256"
        }
      ],
      "payable": false,
      "stateMutability": "view",
      "type": "function"
    },
    {
      "constant": false,
      "inputs": [
        {
          "internalType": "address",
          "name": "_rewardDistribution",
          "type": "address"
        }
      ],
      "name": "setRewardDistribution",
      "outputs": [],
      "payable": false,
      "stateMutability": "nonpayable",
      "type": "function"
    },
    {
      "constant": false,
      "inputs": [
        {
          "internalType": "address",
          "name": "newOwner",
          "type": "address"
        }
      ],
      "name": "transferOwnership",
      "outputs": [],
      "payable": false,
      "stateMutability": "nonpayable",
      "type": "function"
    },
    {
      "constant": false,
      "inputs": [],
      "name": "unpauseBetting",
      "outputs": [],
      "payable": false,
      "stateMutability": "nonpayable",
      "type": "function"
    },
    {
      "constant": true,
      "inputs": [],
      "name": "winner",
      "outputs": [
        {
          "internalType": "enum FightBetting.Fighter",
          "name": "",
          "type": "uint8"
        }
      ],
      "payable": false,
      "stateMutability": "view",
      "type": "function"
    },
    {
      "constant": true,
      "inputs": [],
      "name": "xblzd",
      "outputs": [
        {
          "internalType": "contract IERC20",
          "name": "",
          "type": "address"
        }
      ],
      "payable": false,
      "stateMutability": "view",
      "type": "function"
    }
  ],
  "transactionHash": "0xffe23c4706dfc6bb005bf9144c99c11a158c52e30fdfa1d449cbd340127c4743",
  "args": [],
  "solcInputHash": "2f5710a3af3c04ea23a4ff8d1b8122b6",
  "bytecode": "0x608060405234801561001057600080fd5b506100226001600160e01b0361008116565b600080546001600160a01b0319166001600160a01b03928316178082556040519216917f8be0079c531659141344cd1fd0a4f28419497f9722a3daafe3b4186f6b6457e0908290a3600180546001600160a01b03191633179055610085565b3390565b61213b806100946000396000f3fe6080604052600436106101f85760003560e01c8063b52c9dff1161010d578063dfbf53ae116100a0578063f2fde38b1161006f578063f2fde38b14610646578063f341878114610679578063f3b37fba1461068e578063f4b90363146106a3578063f5afc83f146106d6576101f8565b8063dfbf53ae14610592578063e53b2017146105cb578063ec7f3023146105fe578063f1688d0114610613576101f8565b8063cdbd7dc9116100dc578063cdbd7dc914610520578063d261033b14610535578063d81476fa14610568578063db8d55f11461057d576101f8565b8063b52c9dff146104b4578063bbd9e35e146104e1578063bd3ac2f5146104f6578063c21bae0c1461050b576101f8565b80633de56a4a116101905780638da5cb5b1161015f5780638da5cb5b1461044b5780638f22714d146104605780638f32d59b14610475578063947692ad1461048a578063b187bd261461049f576101f8565b80633de56a4a146103645780633faf11791461037957806355f150f1146103ac578063715018a614610436576101f8565b8063101114cf116101cc578063101114cf146102bc578063246132f9146102ed57806324e3e2811461031d5780633197cbb61461033d576101f8565b80628cc262146101fd5780630572b0cc146102495780630d68b761146102605780630ed5a93314610293575b600080fd5b34801561020957600080fd5b506102306004803603602081101561022057600080fd5b50356001600160a01b0316610709565b6040805192835260208301919091528051918290030190f35b34801561025557600080fd5b5061025e6109e9565b005b34801561026c57600080fd5b5061025e6004803603602081101561028357600080fd5b50356001600160a01b0316610afd565b34801561029f57600080fd5b506102a8610b78565b604080519115158252519081900360200190f35b3480156102c857600080fd5b506102d1610b88565b604080516001600160a01b039092168252519081900360200190f35b3480156102f957600080fd5b5061025e6004803603604081101561031057600080fd5b5080359060200135610b97565b61025e6004803603602081101561033357600080fd5b503560ff16610b9b565b34801561034957600080fd5b50610352610e3c565b60408051918252519081900360200190f35b34801561037057600080fd5b5061025e610e44565b34801561038557600080fd5b506103526004803603602081101561039c57600080fd5b50356001600160a01b0316610eb2565b3480156103b857600080fd5b506103c1610ec4565b6040805160208082528351818301528351919283929083019185019080838360005b838110156103fb5781810151838201526020016103e3565b50505050905090810190601f1680156104285780820380516001836020036101000a031916815260200191505b509250505060405180910390f35b34801561044257600080fd5b5061025e610ee0565b34801561045757600080fd5b506102d1610f83565b34801561046c57600080fd5b50610352610f92565b34801561048157600080fd5b506102a8610f98565b34801561049657600080fd5b50610352610fbc565b3480156104ab57600080fd5b506102a8610fc2565b3480156104c057600080fd5b5061025e600480360360208110156104d757600080fd5b503560ff16610fd2565b3480156104ed57600080fd5b50610352611172565b34801561050257600080fd5b50610352611178565b34801561051757600080fd5b5061035261117e565b34801561052c57600080fd5b506102d1611186565b34801561054157600080fd5b506103526004803603602081101561055857600080fd5b50356001600160a01b031661119e565b34801561057457600080fd5b506102a86111b0565b34801561058957600080fd5b506102306111c0565b34801561059e57600080fd5b506105a76113cd565b604051808260028111156105b757fe5b60ff16815260200191505060405180910390f35b3480156105d757600080fd5b5061025e600480360360208110156105ee57600080fd5b50356001600160a01b03166113dd565b34801561060a57600080fd5b5061025e6114e2565b34801561061f57600080fd5b506103526004803603602081101561063657600080fd5b50356001600160a01b031661154a565b34801561065257600080fd5b5061025e6004803603602081101561066957600080fd5b50356001600160a01b031661155c565b34801561068557600080fd5b506102a86115be565b34801561069a57600080fd5b5061025e6115ce565b3480156106af57600080fd5b5061025e600480360360408110156106c657600080fd5b5060ff813516906020013561168e565b3480156106e257600080fd5b50610352600480360360208110156106f957600080fd5b50356001600160a01b031661192e565b6001546000908190600160b01b900460ff1615610995576001600160a01b03831660009081526002602081815260408084205460038352818520546004845282862054600590945291852054909491939091908190600154600160c01b900460ff16600281111561077657fe5b14801561078257508515155b156107f3576107ae6006546107a28860075461194090919063ffffffff16565b9063ffffffff6119a216565b91506107d568056bc75e2d631000006107a284670de0b6b3a764000063ffffffff61194016565b918290039190506107ec868363ffffffff6119e416565b9750610879565b60018054600160c01b900460ff16600281111561080c57fe5b14801561081857508415155b15610879576108386007546107a28760065461194090919063ffffffff16565b915061085f68056bc75e2d631000006107a284670de0b6b3a764000063ffffffff61194016565b91829003919050610876858363ffffffff6119e416565b97505b6002600154600160c01b900460ff16600281111561089357fe5b14801561089f57508315155b15610904576108bf6008546107a28660095461194090919063ffffffff16565b91506108e668056bc75e2d631000006107a284670de0b6b3a764000063ffffffff61194016565b918290039190506108fd848363ffffffff6119e416565b965061098a565b60018054600160c01b900460ff16600281111561091d57fe5b14801561092957508215155b1561098a576109496009546107a28560085461194090919063ffffffff16565b915061097068056bc75e2d631000006107a284670de0b6b3a764000063ffffffff61194016565b91829003919050610987838363ffffffff6119e416565b96505b5050505050506109e4565b600154600160a81b900460ff16156109e45750506001600160a01b0381166000908152600360209081526040808320546002835281842054600584528285205460049094529190932054920191015b915091565b600154600160b01b900460ff1680610a0a5750600154600160a81b900460ff165b610a4f576040805162461bcd60e51b8152602060048201526011602482015270199a59da1d081b9bdd08191958da591959607a1b604482015290519081900360640190fd5b600080610a5b33610709565b9150915081600014610a8f573360009081526002602090815260408083208390556003909152812055610a8f826001611a3e565b8015610abf5733600090815260046020908152604080832083905560059091528120819055610abf908290611a3e565b6040805183815260208101839052815133927ff5485169b52b04d5b778a6f3ea3d2eb15d0b73fa3b46b1dc0cc1eaf37acda81d928290030190a25050565b610b05610f98565b610b56576040805162461bcd60e51b815260206004820181905260248201527f4f776e61626c653a2063616c6c6572206973206e6f7420746865206f776e6572604482015290519081900360640190fd5b600180546001600160a01b0319166001600160a01b0392909216919091179055565b600154600160a81b900460ff1681565b6001546001600160a01b031681565b5050565b600154600160b01b900460ff1615610bed576040805162461bcd60e51b815260206004820152601060248201526f199a59da1d081a5cc8191958da59195960821b604482015290519081900360640190fd5b600154600160a81b900460ff1615610c365760405162461bcd60e51b81526004018080602001828103825260218152602001806120106021913960400191505060405180910390fd5b600154600160a01b900460ff1615610c8b576040805162461bcd60e51b815260206004820152601360248201527218995d1d1a5b99c81b9bdd081cdd185c9d1959606a1b604482015290519081900360640190fd5b63616af7004210610cd7576040805162461bcd60e51b815260206004820152601160248201527018995d1d1a5b99c81a185cc8195b991959607a1b604482015290519081900360640190fd5b34610d17576040805162461bcd60e51b815260206004820152600b60248201526a1b9bc8189b98881cd95b9d60aa1b604482015290519081900360640190fd5b6002816002811115610d2557fe5b1415610d8557336000818152600260209081526040918290208054349081019091556006805482019055825190815291517fbf404d9e6493333afae4a3c30246246f44bb81f0a1477e035cfdd160d6bbca2b9281900390910190a2610e39565b6001816002811115610d9357fe5b1415610df357336000818152600360209081526040918290208054349081019091556007805482019055825190815291517f3d70be976c901cfa972b376485402265cf6daddf79339c91913bb4b72527e0389281900390910190a2610e39565b6040805162461bcd60e51b81526020600482015260166024820152754c464721205069636b206f6e6520616c72656164792160501b604482015290519081900360640190fd5b50565b63616af70081565b6001546001600160a01b0316610e58611b18565b6001600160a01b031614610e9d5760405162461bcd60e51b815260040180806020018281038252602181526020018061208c6021913960400191505060405180910390fd5b6001805460ff60a01b1916600160a01b179055565b60056020526000908152604090205481565b6040518060600160405280603081526020016120d76030913981565b610ee8610f98565b610f39576040805162461bcd60e51b815260206004820181905260248201527f4f776e61626c653a2063616c6c6572206973206e6f7420746865206f776e6572604482015290519081900360640190fd5b600080546040516001600160a01b03909116907f8be0079c531659141344cd1fd0a4f28419497f9722a3daafe3b4186f6b6457e0908390a3600080546001600160a01b0319169055565b6000546001600160a01b031690565b60065481565b600080546001600160a01b0316610fad611b18565b6001600160a01b031614905090565b60085481565b600154600160a01b900460ff1681565b6001546001600160a01b0316610fe6611b18565b6001600160a01b03161461102b5760405162461bcd60e51b815260040180806020018281038252602181526020018061208c6021913960400191505060405180910390fd5b600154600160b01b900460ff161561107d576040805162461bcd60e51b815260206004820152601060248201526f199a59da1d081a5cc8191958da59195960821b604482015290519081900360640190fd5b600154600160a81b900460ff16156110d0576040805162461bcd60e51b8152602060048201526011602482015270199a59da1d081a5cc818d85b98d95b1959607a1b604482015290519081900360640190fd5b60028160028111156110de57fe5b14806110f5575060018160028111156110f357fe5b145b611138576040805162461bcd60e51b815260206004820152600f60248201526e34b73b30b634b2103334b3b43a32b960891b604482015290519081900360640190fd5b6001805482919060ff60c01b1916600160c01b83600281111561115757fe5b0217905550506001805460ff60b01b1916600160b01b179055565b60075481565b60095481565b6361e343e081565b739a946c3cb16c08334b69ae249690c236ebd5583e81565b60026020526000908152604090205481565b600154600160b81b900460ff1681565b60015460009081906001600160a01b03166111d9611b18565b6001600160a01b03161461121e5760405162461bcd60e51b815260040180806020018281038252602181526020018061208c6021913960400191505060405180910390fd5b600154600160b81b900460ff161561126c576040805162461bcd60e51b815260206004820152600c60248201526b1999595cc818db185a5b595960a21b604482015290519081900360640190fd5b600154600160b01b900460ff16156113c9576001805460ff60b81b1916600160b81b1790556002600154600160c01b900460ff1660028111156112ab57fe5b1415611330576112db68056bc75e2d631000006107a2670de0b6b3a764000060075461194090919063ffffffff16565b915081156112ee576112ee826001611a3e565b61131868056bc75e2d631000006107a2670de0b6b3a764000060095461194090919063ffffffff16565b9050801561132b5761132b816000611a3e565b6113c9565b60018054600160c01b900460ff16600281111561134957fe5b14156113c95761137968056bc75e2d631000006107a2670de0b6b3a764000060065461194090919063ffffffff16565b9150811561138c5761138c826001611a3e565b6113b668056bc75e2d631000006107a2670de0b6b3a764000060085461194090919063ffffffff16565b905080156113c9576113c9816000611a3e565b9091565b600154600160c01b900460ff1681565b6001546001600160a01b03166113f1611b18565b6001600160a01b0316146114365760405162461bcd60e51b815260040180806020018281038252602181526020018061208c6021913960400191505060405180910390fd5b6001600160a01b0381166114535761144e3347611b1c565b610e39565b604080516370a0823160e01b81523060048201529051610e399133916001600160a01b038516916370a08231916024808301926020929190829003018186803b15801561149f57600080fd5b505afa1580156114b3573d6000803e3d6000fd5b505050506040513d60208110156114c957600080fd5b50516001600160a01b038416919063ffffffff611c0116565b6001546001600160a01b03166114f6611b18565b6001600160a01b03161461153b5760405162461bcd60e51b815260040180806020018281038252602181526020018061208c6021913960400191505060405180910390fd5b6001805460ff60a01b19169055565b60036020526000908152604090205481565b611564610f98565b6115b5576040805162461bcd60e51b815260206004820181905260248201527f4f776e61626c653a2063616c6c6572206973206e6f7420746865206f776e6572604482015290519081900360640190fd5b610e3981611c53565b600154600160b01b900460ff1681565b6001546001600160a01b03166115e2611b18565b6001600160a01b0316146116275760405162461bcd60e51b815260040180806020018281038252602181526020018061208c6021913960400191505060405180910390fd5b600154600160b01b900460ff1615611679576040805162461bcd60e51b815260206004820152601060248201526f199a59da1d081a5cc8191958da59195960821b604482015290519081900360640190fd5b6001805460ff60a81b1916600160a81b179055565b600154600160b01b900460ff16156116e0576040805162461bcd60e51b815260206004820152601060248201526f199a59da1d081a5cc8191958da59195960821b604482015290519081900360640190fd5b600154600160a81b900460ff16156117295760405162461bcd60e51b81526004018080602001828103825260218152602001806120106021913960400191505060405180910390fd5b600154600160a01b900460ff161561177e576040805162461bcd60e51b815260206004820152601360248201527218995d1d1a5b99c81b9bdd081cdd185c9d1959606a1b604482015290519081900360640190fd5b63616af70042106117ca576040805162461bcd60e51b815260206004820152601160248201527018995d1d1a5b99c81a185cc8195b991959607a1b604482015290519081900360640190fd5b8061180c576040805162461bcd60e51b815260206004820152600d60248201526c1b9bc81d1bdad95b881cd95b9d609a1b604482015290519081900360640190fd5b600282600281111561181a57fe5b141561189d57611846739a946c3cb16c08334b69ae249690c236ebd5583e33308463ffffffff611cf316565b336000818152600460209081526040918290208054850190556008805485019055815184815291517f2e24e0e0c5cf80b82f0c34b480f3f094b2023955f184c02dbd86c0f240ce755c9281900390910190a2610b97565b60018260028111156118ab57fe5b1415610df3576118d7739a946c3cb16c08334b69ae249690c236ebd5583e33308463ffffffff611cf316565b336000818152600560209081526040918290208054850190556009805485019055815184815291517f186e878fdfdfb0d13a87e34b28c456d65a79860f6dccde67412d424f1dc261cb9281900390910190a2610b97565b60046020526000908152604090205481565b60008261194f5750600061199c565b8282028284828161195c57fe5b04146119995760405162461bcd60e51b815260040180806020018281038252602181526020018061206b6021913960400191505060405180910390fd5b90505b92915050565b600061199983836040518060400160405280601a81526020017f536166654d6174683a206469766973696f6e206279207a65726f000000000000815250611d53565b600082820183811015611999576040805162461bcd60e51b815260206004820152601b60248201527f536166654d6174683a206164646974696f6e206f766572666c6f770000000000604482015290519081900360640190fd5b60008115611a6357504780831115611a54578092505b611a5e3384611b1c565b611b13565b604080516370a0823160e01b81523060048201529051739a946c3cb16c08334b69ae249690c236ebd5583e916370a08231916024808301926020929190829003018186803b158015611ab457600080fd5b505afa158015611ac8573d6000803e3d6000fd5b505050506040513d6020811015611ade57600080fd5b5051905080831115611aee578092505b611b13739a946c3cb16c08334b69ae249690c236ebd5583e338563ffffffff611c0116565b505050565b3390565b80471015611b71576040805162461bcd60e51b815260206004820152601d60248201527f416464726573733a20696e73756666696369656e742062616c616e6365000000604482015290519081900360640190fd5b6040516000906001600160a01b0384169083908381818185875af1925050503d8060008114611bbc576040519150601f19603f3d011682016040523d82523d6000602084013e611bc1565b606091505b5050905080611b135760405162461bcd60e51b815260040180806020018281038252603a815260200180612031603a913960400191505060405180910390fd5b604080516001600160a01b038416602482015260448082018490528251808303909101815260649091019091526020810180516001600160e01b031663a9059cbb60e01b179052611b13908490611df5565b6001600160a01b038116611c985760405162461bcd60e51b8152600401808060200182810382526026815260200180611fea6026913960400191505060405180910390fd5b600080546040516001600160a01b03808516939216917f8be0079c531659141344cd1fd0a4f28419497f9722a3daafe3b4186f6b6457e091a3600080546001600160a01b0319166001600160a01b0392909216919091179055565b604080516001600160a01b0385811660248301528416604482015260648082018490528251808303909101815260849091019091526020810180516001600160e01b03166323b872dd60e01b179052611d4d908590611df5565b50505050565b60008183611ddf5760405162461bcd60e51b81526004018080602001828103825283818151815260200191508051906020019080838360005b83811015611da4578181015183820152602001611d8c565b50505050905090810190601f168015611dd15780820380516001836020036101000a031916815260200191505b509250505060405180910390fd5b506000838581611deb57fe5b0495945050505050565b611e07826001600160a01b0316611fad565b611e58576040805162461bcd60e51b815260206004820152601f60248201527f5361666545524332303a2063616c6c20746f206e6f6e2d636f6e747261637400604482015290519081900360640190fd5b60006060836001600160a01b0316836040518082805190602001908083835b60208310611e965780518252601f199092019160209182019101611e77565b6001836020036101000a0380198251168184511680821785525050505050509050019150506000604051808303816000865af19150503d8060008114611ef8576040519150601f19603f3d011682016040523d82523d6000602084013e611efd565b606091505b509150915081611f54576040805162461bcd60e51b815260206004820181905260248201527f5361666545524332303a206c6f772d6c6576656c2063616c6c206661696c6564604482015290519081900360640190fd5b805115611d4d57808060200190516020811015611f7057600080fd5b5051611d4d5760405162461bcd60e51b815260040180806020018281038252602a8152602001806120ad602a913960400191505060405180910390fd5b6000813f7fc5d2460186f7233c927e7db2dcc703c0e500b653ca82273b7bfad8045d85a4708115801590611fe15750808214155b94935050505056fe4f776e61626c653a206e6577206f776e657220697320746865207a65726f206164647265737366696768742069732063616e63656c65642c20636c61696d20796f757220626574416464726573733a20756e61626c6520746f2073656e642076616c75652c20726563697069656e74206d61792068617665207265766572746564536166654d6174683a206d756c7469706c69636174696f6e206f766572666c6f7743616c6c6572206973206e6f742072657761726420646973747269627574696f6e5361666545524332303a204552433230206f7065726174696f6e20646964206e6f7420737563636565644354204669676874204e6967687420447562616920323032313a20526f6f6b6965584254207673204c6f6f6d64617274a265627a7a723158203d59a0641580cf49bc8b543326814e8bde3ef30a4a83f393a8020365bf02d18d64736f6c63430005110032",
  "devdoc": {
    "methods": {
      "isOwner()": {
        "details": "Returns true if the caller is the current owner."
      },
      "owner()": {
        "details": "Returns the address of the current owner."
      },
      "renounceOwnership()": {
        "details": "Leaves the contract without owner. It will not be possible to call `onlyOwner` functions anymore. Can only be called by the current owner.     * NOTE: Renouncing ownership will leave the contract without an owner, thereby removing any functionality that is only available to the owner."
      },
      "transferOwnership(address)": {
        "details": "Transfers ownership of the contract to a new account (`newOwner`). Can only be called by the current owner."
      }
    }
  },
  "userdoc": {
    "methods": {}
  },
  "storageLayout": {
    "storage": [
      {
        "astId": 282,
        "contract": "cache/solpp-generated-contracts/FightBetting.sol:FightBetting",
        "label": "_owner",
        "offset": 0,
        "slot": "0",
        "type": "t_address"
      },
      {
        "astId": 748,
        "contract": "cache/solpp-generated-contracts/FightBetting.sol:FightBetting",
        "label": "rewardDistribution",
        "offset": 0,
        "slot": "1",
        "type": "t_address"
      },
      {
        "astId": 814,
        "contract": "cache/solpp-generated-contracts/FightBetting.sol:FightBetting",
        "label": "isPaused",
        "offset": 20,
        "slot": "1",
        "type": "t_bool"
      },
      {
        "astId": 816,
        "contract": "cache/solpp-generated-contracts/FightBetting.sol:FightBetting",
        "label": "isCanceled",
        "offset": 21,
        "slot": "1",
        "type": "t_bool"
      },
      {
        "astId": 818,
        "contract": "cache/solpp-generated-contracts/FightBetting.sol:FightBetting",
        "label": "isFinal",
        "offset": 22,
        "slot": "1",
        "type": "t_bool"
      },
      {
        "astId": 820,
        "contract": "cache/solpp-generated-contracts/FightBetting.sol:FightBetting",
        "label": "isFeesClaimed",
        "offset": 23,
        "slot": "1",
        "type": "t_bool"
      },
      {
        "astId": 822,
        "contract": "cache/solpp-generated-contracts/FightBetting.sol:FightBetting",
        "label": "winner",
        "offset": 24,
        "slot": "1",
        "type": "t_enum(Fighter)792"
      },
      {
        "astId": 826,
        "contract": "cache/solpp-generated-contracts/FightBetting.sol:FightBetting",
        "label": "loomdartBNBBet",
        "offset": 0,
        "slot": "2",
        "type": "t_mapping(t_address,t_uint256)"
      },
      {
        "astId": 830,
        "contract": "cache/solpp-generated-contracts/FightBetting.sol:FightBetting",
        "label": "rookieBNBBet",
        "offset": 0,
        "slot": "3",
        "type": "t_mapping(t_address,t_uint256)"
      },
      {
        "astId": 834,
        "contract": "cache/solpp-generated-contracts/FightBetting.sol:FightBetting",
        "label": "loomdartXBLZDBet",
        "offset": 0,
        "slot": "4",
        "type": "t_mapping(t_address,t_uint256)"
      },
      {
        "astId": 838,
        "contract": "cache/solpp-generated-contracts/FightBetting.sol:FightBetting",
        "label": "rookieXBLZDBet",
        "offset": 0,
        "slot": "5",
        "type": "t_mapping(t_address,t_uint256)"
      },
      {
        "astId": 840,
        "contract": "cache/solpp-generated-contracts/FightBetting.sol:FightBetting",
        "label": "loomdartBNBPot",
        "offset": 0,
        "slot": "6",
        "type": "t_uint256"
      },
      {
        "astId": 842,
        "contract": "cache/solpp-generated-contracts/FightBetting.sol:FightBetting",
        "label": "rookieBNBPot",
        "offset": 0,
        "slot": "7",
        "type": "t_uint256"
      },
      {
        "astId": 844,
        "contract": "cache/solpp-generated-contracts/FightBetting.sol:FightBetting",
        "label": "loomdartXBLZDPot",
        "offset": 0,
        "slot": "8",
        "type": "t_uint256"
      },
      {
        "astId": 846,
        "contract": "cache/solpp-generated-contracts/FightBetting.sol:FightBetting",
        "label": "rookieXBLZDPot",
        "offset": 0,
        "slot": "9",
        "type": "t_uint256"
      }
    ],
    "types": {
      "t_address": {
        "encoding": "inplace",
        "label": "address",
        "numberOfBytes": "20"
      },
      "t_bool": {
        "encoding": "inplace",
        "label": "bool",
        "numberOfBytes": "1"
      },
      "t_enum(Fighter)792": {
        "encoding": "inplace",
        "label": "enum FightBetting.Fighter",
        "numberOfBytes": "1"
      },
      "t_mapping(t_address,t_uint256)": {
        "encoding": "mapping",
        "key": "t_address",
        "label": "mapping(address => uint256)",
        "numberOfBytes": "32",
        "value": "t_uint256"
      },
      "t_uint256": {
        "encoding": "inplace",
        "label": "uint256",
        "numberOfBytes": "32"
      }
    }
  }
}