{
  "address": "0x5FbDB2315678afecb367f032d93F642f64180aa3",
  "abi": [
    {
      "inputs": [],
      "stateMutability": "payable",
      "type": "constructor"
    },
    {
      "anonymous": false,
      "inputs": [
        {
          "indexed": true,
          "internalType": "address",
          "name": "player",
          "type": "address"
        },
        {
          "indexed": false,
          "internalType": "uint256",
          "name": "bet",
          "type": "uint256"
        },
        {
          "indexed": false,
          "internalType": "uint256",
          "name": "choice",
          "type": "uint256"
        },
        {
          "indexed": false,
          "internalType": "bytes32",
          "name": "seed",
          "type": "bytes32"
        }
      ],
      "name": "GameCreated",
      "type": "event"
    },
    {
      "anonymous": false,
      "inputs": [
        {
          "indexed": true,
          "internalType": "address",
          "name": "player",
          "type": "address"
        },
        {
          "indexed": false,
          "internalType": "uint256",
          "name": "bet",
          "type": "uint256"
        },
        {
          "indexed": false,
          "internalType": "uint256",
          "name": "prize",
          "type": "uint256"
        },
        {
          "indexed": false,
          "internalType": "uint256",
          "name": "choice",
          "type": "uint256"
        },
        {
          "indexed": false,
          "internalType": "uint256",
          "name": "result",
          "type": "uint256"
        },
        {
          "indexed": true,
          "internalType": "bytes32",
          "name": "seed",
          "type": "bytes32"
        },
        {
          "indexed": false,
          "internalType": "enum CoinFlip.GameState",
          "name": "state",
          "type": "uint8"
        }
      ],
      "name": "GamePlayed",
      "type": "event"
    },
    {
      "stateMutability": "nonpayable",
      "type": "fallback"
    },
    {
      "inputs": [],
      "name": "MAX_BET",
      "outputs": [
        {
          "internalType": "uint256",
          "name": "",
          "type": "uint256"
        }
      ],
      "stateMutability": "view",
      "type": "function"
    },
    {
      "inputs": [],
      "name": "MIN_BET",
      "outputs": [
        {
          "internalType": "uint256",
          "name": "",
          "type": "uint256"
        }
      ],
      "stateMutability": "view",
      "type": "function"
    },
    {
      "inputs": [],
      "name": "WIN_COEFFICIENT",
      "outputs": [
        {
          "internalType": "uint256",
          "name": "",
          "type": "uint256"
        }
      ],
      "stateMutability": "view",
      "type": "function"
    },
    {
      "inputs": [
        {
          "internalType": "bytes32",
          "name": "_seed",
          "type": "bytes32"
        },
        {
          "internalType": "uint8",
          "name": "_v",
          "type": "uint8"
        },
        {
          "internalType": "bytes32",
          "name": "_r",
          "type": "bytes32"
        },
        {
          "internalType": "bytes32",
          "name": "_s",
          "type": "bytes32"
        }
      ],
      "name": "confirm",
      "outputs": [
        {
          "internalType": "address",
          "name": "",
          "type": "address"
        }
      ],
      "stateMutability": "nonpayable",
      "type": "function"
    },
    {
      "inputs": [],
      "name": "croupier",
      "outputs": [
        {
          "internalType": "address",
          "name": "",
          "type": "address"
        }
      ],
      "stateMutability": "view",
      "type": "function"
    },
    {
      "inputs": [],
      "name": "destroyContract",
      "outputs": [],
      "stateMutability": "nonpayable",
      "type": "function"
    },
    {
      "inputs": [
        {
          "internalType": "bytes32",
          "name": "",
          "type": "bytes32"
        }
      ],
      "name": "games",
      "outputs": [
        {
          "internalType": "uint256",
          "name": "id",
          "type": "uint256"
        },
        {
          "internalType": "address payable",
          "name": "player",
          "type": "address"
        },
        {
          "internalType": "uint256",
          "name": "bet",
          "type": "uint256"
        },
        {
          "internalType": "uint256",
          "name": "prize",
          "type": "uint256"
        },
        {
          "internalType": "uint256",
          "name": "choice",
          "type": "uint256"
        },
        {
          "internalType": "uint256",
          "name": "result",
          "type": "uint256"
        },
        {
          "internalType": "enum CoinFlip.GameState",
          "name": "state",
          "type": "uint8"
        }
      ],
      "stateMutability": "view",
      "type": "function"
    },
    {
      "inputs": [
        {
          "internalType": "uint256",
          "name": "",
          "type": "uint256"
        }
      ],
      "name": "listGames",
      "outputs": [
        {
          "internalType": "bytes32",
          "name": "",
          "type": "bytes32"
        }
      ],
      "stateMutability": "view",
      "type": "function"
    },
    {
      "inputs": [
        {
          "internalType": "uint256",
          "name": "_choice",
          "type": "uint256"
        },
        {
          "internalType": "bytes32",
          "name": "_seed",
          "type": "bytes32"
        }
      ],
      "name": "play",
      "outputs": [],
      "stateMutability": "payable",
      "type": "function"
    },
    {
      "inputs": [
        {
          "internalType": "uint256",
          "name": "min",
          "type": "uint256"
        },
        {
          "internalType": "uint256",
          "name": "max",
          "type": "uint256"
        }
      ],
      "name": "setBetRange",
      "outputs": [],
      "stateMutability": "nonpayable",
      "type": "function"
    },
    {
      "inputs": [
        {
          "internalType": "address",
          "name": "addr",
          "type": "address"
        }
      ],
      "name": "setCroupier",
      "outputs": [],
      "stateMutability": "nonpayable",
      "type": "function"
    },
    {
      "inputs": [
        {
          "internalType": "uint256",
          "name": "amount",
          "type": "uint256"
        }
      ],
      "name": "setWinCoefficient",
      "outputs": [
        {
          "internalType": "uint256",
          "name": "",
          "type": "uint256"
        }
      ],
      "stateMutability": "nonpayable",
      "type": "function"
    },
    {
      "inputs": [],
      "name": "totalGamesCount",
      "outputs": [
        {
          "internalType": "uint256",
          "name": "",
          "type": "uint256"
        }
      ],
      "stateMutability": "view",
      "type": "function"
    },
    {
      "inputs": [
        {
          "internalType": "uint256",
          "name": "amount",
          "type": "uint256"
        }
      ],
      "name": "withdrawFunds",
      "outputs": [],
      "stateMutability": "nonpayable",
      "type": "function"
    },
    {
      "stateMutability": "payable",
      "type": "receive"
    }
  ],
  "transactionHash": "0x00b5ab6add7c8870e2a0de8d5b6978bfc40474da396e0124ed8fb9e1c87d4430",
  "args": [],
  "solcInputHash": "82c37fe55b732bf36e65053c6d6e4a2c",
  "bytecode": "0x608060405260c3600255662386f26fc10000600355670de0b6b3a7640000600455600180546001600160a01b03191633179055610bf0806100416000396000f3fe6080604052600436106100e15760003560e01c8063abae50501161007f578063f579f88211610059578063f579f88214610238578063f593a387146102b1578063f8bb201c146102c7578063f957eff2146102e7576100e8565b8063abae5050146101e5578063b00606a514610205578063bf4bd00214610225576100e8565b806365fe09d7116100bb57806365fe09d7146101575780636b5c5f39146101775780637e95b523146101af57806390e50774146101c5576100e8565b8063092a5cce146100f7578063155dd5ee1461010e5780636540742f1461012e576100e8565b366100e857005b3480156100f457600080fd5b50005b34801561010357600080fd5b5061010c6102fd565b005b34801561011a57600080fd5b5061010c61012936600461098d565b61033e565b34801561013a57600080fd5b5061014460035481565b6040519081526020015b60405180910390f35b34801561016357600080fd5b5061014461017236600461098d565b6103a5565b34801561018357600080fd5b50600154610197906001600160a01b031681565b6040516001600160a01b03909116815260200161014e565b3480156101bb57600080fd5b5061014460045481565b3480156101d157600080fd5b506101446101e036600461098d565b6103c6565b3480156101f157600080fd5b5061010c6102003660046109e6565b6103fa565b34801561021157600080fd5b506101976102203660046109a5565b61042f565b61010c6102333660046109e6565b61069e565b34801561024457600080fd5b5061029e61025336600461098d565b6005602081905260009182526040909120805460018201546002830154600384015460048501549585015460069095015493956001600160a01b039093169491939092919060ff1687565b60405161014e9796959493929190610aad565b3480156102bd57600080fd5b5061014460075481565b3480156102d357600080fd5b5061010c6102e236600461095f565b610913565b3480156102f357600080fd5b5061014460025481565b6000546001600160a01b031633146103305760405162461bcd60e51b815260040161032790610a68565b60405180910390fd5b6000546001600160a01b0316ff5b6000546001600160a01b031633146103685760405162461bcd60e51b815260040161032790610a68565b600080546040516001600160a01b039091169183156108fc02918491818181858888f193505050501580156103a1573d6000803e3d6000fd5b5050565b600681815481106103b557600080fd5b600091825260209091200154905081565b600080546001600160a01b031633146103f15760405162461bcd60e51b815260040161032790610a68565b50600281905590565b6000546001600160a01b031633146104245760405162461bcd60e51b815260040161032790610a68565b600391909155600455565b6001546000906001600160a01b0316331461049d5760405162461bcd60e51b815260206004820152602860248201527f4f6e6c79207468652063726f75706965722063616e2072756e207468697320666044820152673ab731ba34b7b71760c11b6064820152608401610327565b600085815260056020526040812090600682015460ff1660028111156104d357634e487b7160e01b600052602160045260246000fd5b146105165760405162461bcd60e51b815260206004820152601360248201527211d85b5948185b1c9958591e481c1b185e5959606a1b6044820152606401610327565b60006040518060400160405280601c81526020017f19457468657265756d205369676e6564204d6573736167653a0a333200000000815250905060008188604051602001610565929190610a29565b60408051601f198184030181529190528051602090910120905061058a600286610b7a565b600584018190556004840154141561061057606460025484600201546105b09190610b40565b6105ba9190610b2c565b6003840181905560018401546040516001600160a01b039091169180156108fc02916000818181858888f193505050501580156105fb573d6000803e3d6000fd5b5060068301805460ff19166001179055610627565b6000600384015560068301805460ff191660021790555b6001830154600284015460038501546004860154600587015460068801546040518e966001600160a01b0316957f66a277eae08be005534c699a6a8bb8d6130423996a074a37936859d78dab29b99561068b95919490939192909160ff1690610af8565b60405180910390a3505050949350505050565b34600354111580156106b257506004543411155b61070a5760405162461bcd60e51b815260206004820152602360248201527f52617465206973206e6f74206265747765656e206d696e20616e64206d61782060448201526218995d60ea1b6064820152608401610327565b8115806107175750816001145b6107635760405162461bcd60e51b815260206004820152601760248201527f43686f6963652073686f756c642062652030206f7220310000000000000000006044820152606401610327565b60006064600254346107759190610b40565b61077f9190610b2c565b90504781106107e75760405162461bcd60e51b815260206004820152602e60248201527f496e737566666963656e742066756e6473206f6e20636f6e747261637420746f60448201526d0818dbdd995c881d1a194818995d60921b6064820152608401610327565b600082815260056020526040902060028101541561083b5760405162461bcd60e51b815260206004820152601160248201527014d9595908185b1c9958591e481d5cd959607a1b6044820152606401610327565b6001810180546001600160a01b031916331790553460028201556004810184905560068101805460ff191690556007805490600061087883610b5f565b909155505060068054600180820183556000929092527ff652222313e28459528d920b65115c16c04f3efc82aaedc97be59f3f377c0d3f018490558101546002820154600483015460408051928352602083019190915281018590526001600160a01b03909116907f0b67fb309cd70de956ad131734cbf3dcf23c78aa040b81ad1f7974defdfa511c9060600160405180910390a250505050565b6000546001600160a01b0316331461093d5760405162461bcd60e51b815260040161032790610a68565b600180546001600160a01b0319166001600160a01b0392909216919091179055565b600060208284031215610970578081fd5b81356001600160a01b0381168114610986578182fd5b9392505050565b60006020828403121561099e578081fd5b5035919050565b600080600080608085870312156109ba578283fd5b84359350602085013560ff811681146109d1578384fd5b93969395505050506040820135916060013590565b600080604083850312156109f8578182fd5b50508035926020909101359150565b60038110610a2557634e487b7160e01b600052602160045260246000fd5b9052565b60008351815b81811015610a495760208187018101518583015201610a2f565b81811115610a575782828501525b509190910191825250602001919050565b60208082526025908201527f4f6e6c7920746865206f776e65722063616e2072756e20746869732066756e636040820152643a34b7b71760d91b606082015260800190565b8781526001600160a01b038716602082015260408101869052606081018590526080810184905260a0810183905260e08101610aec60c0830184610a07565b98975050505050505050565b600060a082019050868252856020830152846040830152836060830152610b226080830184610a07565b9695505050505050565b600082610b3b57610b3b610ba4565b500490565b6000816000190483118215151615610b5a57610b5a610b8e565b500290565b6000600019821415610b7357610b73610b8e565b5060010190565b600082610b8957610b89610ba4565b500690565b634e487b7160e01b600052601160045260246000fd5b634e487b7160e01b600052601260045260246000fdfea26469706673582212201f140cb6fd5ffa0cb557d134878e5aaeae03ed78f1c9e37a5990142710089f5064736f6c63430008030033",
  "devdoc": {
    "kind": "dev",
    "methods": {},
    "version": 1
  },
  "userdoc": {
    "kind": "user",
    "methods": {},
    "version": 1
  },
  "storageLayout": {
    "storage": [
      {
        "astId": 3341,
        "contract": "cache/solpp-generated-contracts/CoinFlip.sol:CoinFlip",
        "label": "owner",
        "offset": 0,
        "slot": "0",
        "type": "t_address_payable"
      },
      {
        "astId": 3343,
        "contract": "cache/solpp-generated-contracts/CoinFlip.sol:CoinFlip",
        "label": "croupier",
        "offset": 0,
        "slot": "1",
        "type": "t_address"
      },
      {
        "astId": 3346,
        "contract": "cache/solpp-generated-contracts/CoinFlip.sol:CoinFlip",
        "label": "WIN_COEFFICIENT",
        "offset": 0,
        "slot": "2",
        "type": "t_uint256"
      },
      {
        "astId": 3349,
        "contract": "cache/solpp-generated-contracts/CoinFlip.sol:CoinFlip",
        "label": "MIN_BET",
        "offset": 0,
        "slot": "3",
        "type": "t_uint256"
      },
      {
        "astId": 3352,
        "contract": "cache/solpp-generated-contracts/CoinFlip.sol:CoinFlip",
        "label": "MAX_BET",
        "offset": 0,
        "slot": "4",
        "type": "t_uint256"
      },
      {
        "astId": 3377,
        "contract": "cache/solpp-generated-contracts/CoinFlip.sol:CoinFlip",
        "label": "games",
        "offset": 0,
        "slot": "5",
        "type": "t_mapping(t_bytes32,t_struct(Game)3372_storage)"
      },
      {
        "astId": 3380,
        "contract": "cache/solpp-generated-contracts/CoinFlip.sol:CoinFlip",
        "label": "listGames",
        "offset": 0,
        "slot": "6",
        "type": "t_array(t_bytes32)dyn_storage"
      },
      {
        "astId": 3382,
        "contract": "cache/solpp-generated-contracts/CoinFlip.sol:CoinFlip",
        "label": "totalGamesCount",
        "offset": 0,
        "slot": "7",
        "type": "t_uint256"
      }
    ],
    "types": {
      "t_address": {
        "encoding": "inplace",
        "label": "address",
        "numberOfBytes": "20"
      },
      "t_address_payable": {
        "encoding": "inplace",
        "label": "address payable",
        "numberOfBytes": "20"
      },
      "t_array(t_bytes32)dyn_storage": {
        "base": "t_bytes32",
        "encoding": "dynamic_array",
        "label": "bytes32[]",
        "numberOfBytes": "32"
      },
      "t_bytes32": {
        "encoding": "inplace",
        "label": "bytes32",
        "numberOfBytes": "32"
      },
      "t_enum(GameState)3356": {
        "encoding": "inplace",
        "label": "enum CoinFlip.GameState",
        "numberOfBytes": "1"
      },
      "t_mapping(t_bytes32,t_struct(Game)3372_storage)": {
        "encoding": "mapping",
        "key": "t_bytes32",
        "label": "mapping(bytes32 => struct CoinFlip.Game)",
        "numberOfBytes": "32",
        "value": "t_struct(Game)3372_storage"
      },
      "t_struct(Game)3372_storage": {
        "encoding": "inplace",
        "label": "struct CoinFlip.Game",
        "members": [
          {
            "astId": 3358,
            "contract": "cache/solpp-generated-contracts/CoinFlip.sol:CoinFlip",
            "label": "id",
            "offset": 0,
            "slot": "0",
            "type": "t_uint256"
          },
          {
            "astId": 3360,
            "contract": "cache/solpp-generated-contracts/CoinFlip.sol:CoinFlip",
            "label": "player",
            "offset": 0,
            "slot": "1",
            "type": "t_address_payable"
          },
          {
            "astId": 3362,
            "contract": "cache/solpp-generated-contracts/CoinFlip.sol:CoinFlip",
            "label": "bet",
            "offset": 0,
            "slot": "2",
            "type": "t_uint256"
          },
          {
            "astId": 3364,
            "contract": "cache/solpp-generated-contracts/CoinFlip.sol:CoinFlip",
            "label": "prize",
            "offset": 0,
            "slot": "3",
            "type": "t_uint256"
          },
          {
            "astId": 3366,
            "contract": "cache/solpp-generated-contracts/CoinFlip.sol:CoinFlip",
            "label": "choice",
            "offset": 0,
            "slot": "4",
            "type": "t_uint256"
          },
          {
            "astId": 3368,
            "contract": "cache/solpp-generated-contracts/CoinFlip.sol:CoinFlip",
            "label": "result",
            "offset": 0,
            "slot": "5",
            "type": "t_uint256"
          },
          {
            "astId": 3371,
            "contract": "cache/solpp-generated-contracts/CoinFlip.sol:CoinFlip",
            "label": "state",
            "offset": 0,
            "slot": "6",
            "type": "t_enum(GameState)3356"
          }
        ],
        "numberOfBytes": "224"
      },
      "t_uint256": {
        "encoding": "inplace",
        "label": "uint256",
        "numberOfBytes": "32"
      }
    }
  }
}